:020000040800F2
:10000000B01600201DA00008E19D0008E39D000837
:1000100000000000000000000000000000000000E0
:10002000000000000000000000000000E79D000844
:100030000000000000000000E99D0008EB9D0008A2
:10004000F33400085F3F0008F39D0008AF4000084C
:10005000BB63000867660008B3660008476F0008C6
:10006000000000009370000883770008C377000841
:10007000678100085383000800000000779F000894
:1000800000000000839F0008000000000000000046
:10009000F5A2000800000000F7A20008F9A200087D
:1000A000FBA20008019E0008FDA200080B9E0008AC
:1000B000159E0008FFA200080000000000000000DC
:1000C00078B5A1B00400200000F06BFE200000F025
:1000D0000AFF002000906A4601A9854800F032FE20
:1000E00001AD2020009968540098401C009000F059
:1000F0007DFF0600042200982918300000F0C8FF98
:100100000098001D0090009901A800F028FE22B080
:1001100070BD78B5A1B00600300000F042FE30009E
:1001200000F0E1FE002000906A4601A9D74800F0E7
:1001300009FE01AC2020009960540098401C0090FA
:1001400001F007F90099611801F020F800990818EA
:1001500000902E25009825540098401C009001F036
:10016000FEF8412806D14120009960540098401CB7
:10017000009010E001F0F3F8422806D142200099E7
:1001800060540098401C009005E03F2000996054A6
:100190000098401C009001F0E8F80099611800F008
:1001A000F5FF009908180090009825540098401C0D
:1001B000009001F0E0F80099611800F0E7FF009965
:1001C00008180090009825540098401C009001F0F9
:1001D000D8F80099611800F0D9FF0099081800902C
:1001E000009825540098401C009001F0D0F8009928
:1001F000611800F0CBFF009908180090009901A841
:1002000000F0ADFD22B070BDF8B5A2B00400200032
:1002100000F0C7FD200000F066FE00ADAD1C200020
:1002200000F061FE2870200000F05DFE687000A8FC
:10023000801C00F06DFF0600684606706846007876
:1002400001F077F8200000F04EFE2870200000F04A
:100250004AFE687000A8801C00F05AFF05002F00BD
:100260003800C0B201F06DF8200000F03CFE002024
:10027000019001AA02A9A74800F064FD019902A813
:1002800000F06DFD23B0F0BD78B5A1B004000020F2
:1002900006000090200000F084FD200000F023FE06
:1002A000200000F020FE0500200000F01CFE0120D0
:1002B00001F011F92800C0B2302802D0312803D053
:1002C00005E001F0CAFA08E001F0BDFA05E0924A43
:1002D00001A9200000F051FD08E06A4601A98F48FD
:1002E00000F030FD009901A800F039FD22B070BD8A
:1002F00032380000F0B5A5B00700002004903800A7
:1003000000F04FFD380000F0EEFD380000F0EBFD8E
:1003100069460870022001F0DEF86846007831284E
:1003200003D068460078322832D1380000F0DBFD77
:10033000380000F0B5FD052805D2794A05A9380036
:1003400000F01BFD9FE000ACA41C380000F0CBFDCA
:100350002070380000F0C7FD607000A8801C00F01D
:10036000D7FE05002800C0B20602380000F0BBFD31
:100370002070380000F0B7FD607000A8801C00F00D
:10038000C7FE69464870684640783018694608815B
:10039000380000F0A8FD68460078302806D063D306
:1003A000322832D005D333285BD05DE001F04BFA20
:1003B00060E001F012F8040601F016F800042518B8
:1003C00001F019F800022E1801F01CF830186946E7
:1003D0000989401801900198000601990902FF223D
:1003E00012040A4080180199090AFF2212020A40E9
:1003F00080180199090E40180390039801F009F83C
:1004000001F02BFA01F01FFA34E000F0E6FF0406D9
:1004100000F0EAFF0004251800F0EDFF00022E189E
:1004200000F0F0FF301869460989401A01900198E0
:10043000000601990902FF2212040A40801801995E
:10044000090AFF2212020A4080180199090E401879
:100450000390039800F0DDFF01F0FFF901F0F3F9DC
:1004600008E001F0FAF905E02D4A05A9380000F08E
:1004700084FC08E004AA05A9834800F063FC049901
:1004800005A800F06CFC25B0F0BD00004438000069
:1004900030B5A1B00400200000F083FC200000F083
:1004A00022FD200000F01FFD05002800C0B230280A
:1004B00006D019D332280DD007D333280FD013E03C
:1004C00001F021FA01F0D7FA14E001F08DFA01F001
:1004D000F7F90FE001F088FA01F000FA0AE001F004
:1004E00083FA01F0F4F905E0684A01A9200000F060
:1004F00044FC0DE0200000F0F6FC002000906A466D
:1005000001A9634800F01EFC009901A800F027FC37
:1005100021B030BD453800003430000034380000D0
:1005200031310000F0B5A5B005000024009428008A
:1005300000F037FC280000F0D6FC280000F0D3FCC7
:10054000694608710021280000F0ECFC0D2800D05D
:1005500092E0280000F0C7FC68460079612809D0C5
:100560006A4605A97D4800F0EDFB009905A800F05A
:10057000F6FB86E000946A4605A9794800F0E2FBA4
:1005800005AC2020009960540098401C009001F0B8
:10059000C1F9642001F0F2FC00F028FD060001F032
:1005A00049FE07000B228D49300001F055FE0490F2
:1005B0000B228B49300001F04FFE03900B2289493A
:1005C000300001F049FE02900498B84219D2302060
:1005D000009960540099491C009100996054009959
:1005E000491C0091009960540099491C00910099A0
:1005F00060540098401C0090009905A800F0AFFBE3
:100600003FE0039887421DD20298B8421AD23020A8
:10061000009960540099491C009100996054009918
:10062000491C0091009960540098401C00903120B2
:10063000009960540098401C0090009905A800F0B3
:100640008EFB1EE04620009960540099491C0091E1
:10065000009960540099491C0091009960540099D8
:10066000491C0091009960540098401C009000992A
:1006700005A800F074FB04E0384A05A9280000F042
:100680007CFB25B0F0BD00003139000037300000A0
:1006900037380000F0B5A3B0040000270197200010
:1006A00000F07FFB200000F01EFC200000F0F8FBB3
:1006B0000A280FD10921200000F034FC0D2803D1B5
:1006C000200000F010FC05E0A34A03A9200000F080
:1006D00054FB40E06D46200000F005FC287020002F
:1006E00000F001FC687002AE684600F011FDF07089
:1006F000200000F0F8FB2870200000F0F4FB687088
:10070000684600F005FDB070200000F0ECFB28709A
:10071000200000F0E8FB6870684600F0F9FC70709B
:10072000200000F0E0FB2870200000F0DCFB687087
:10073000684600F0EDFC3070200000F0D4FB029819
:1007400000F0C7FD01AA03A9B44800F0FBFA019923
:1007500003A800F004FB23B0F0BD00003830000017
:1007600038380000F0B5A1B0060000200500009068
:10077000300000F016FB300000F0B5FBB64C012C49
:100780001ADB300000F0AFFBC0B200F055FC0700F0
:100790003800C0B2FF2805D1AD4A01A9300000F0F1
:1007A000ECFA18E03800C0B260432D1820000A218E
:1007B00001F0D4FD0400E2E7300000F094FB2800D3
:1007C00000F08EFD6A4601A9A24800F0BBFA00992C
:1007D00001A800F0C4FA21B0F0BD0000CD06000071
:1007E000CD04000033030000F8B5A2B007000025D7
:1007F0000095380000F0D5FA380000F074FB38009E
:1008000000F071FB69464871380000F06CFB01ACE8
:10081000A41C380000F067FB2070380000F063FB78
:10082000607001A8801C00F073FC694608713800F4
:1008300000F059FB68464079622804D064282CD027
:10084000682845D07BE06A4602A9BD4800F07AFAE4
:1008500002AE2020009970540098401C0090684619
:10086000007901F0D4FE0400202D15DA1F202900A4
:10087000401A2100C140C80706D5312000997054A4
:100880000098401C009005E03020009970540098BA
:10089000401C00906D1CE7E757E06A4602A9A84893
:1008A00000F050FA02AD2020009968540098401CD6
:1008B00000906846007901F0AAFE04000A22009820
:1008C0002918200000F0E4FB00980A3000903CE07A
:1008D0006A4602A99A4800F035FA02AD2020009934
:1008E00068540098401C00906846007901F08FFE23
:1008F000040000982918200EC0B200F0E8FB009810
:10090000801C0090009829182000000CC0B200F054
:10091000DEFB0098801C009000982918200AC0B2C5
:1009200000F0D5FB0098801C00900098291820004A
:10093000C0B200F0CCFB0098801C009005E0AA4AF1
:1009400002A9380000F019FA03E0009902A800F0AB
:1009500006FA23B0F0BD000041300000F0B5A3B0AE
:10096000040000200190200000F01BFA200000F09D
:10097000BAFA6D46200000F0B6FA2870200000F0A8
:10098000B2FA6870684600F0C3FB0700200000F070
:10099000AAFA200000F0A7FA2870200000F0A3FABD
:1009A000687002AE684600F0B3FBF070200000F003
:1009B0009AFA2870200000F096FA6870684600F0F5
:1009C000A7FBB070200000F08EFA2870200000F025
:1009D0008AFA6870684600F09BFB7070200000F097
:1009E00082FA2870200000F07EFA6870684600F0F5
:1009F0008FFB3070200000F076FA3900C9B20298FF
:100A000001F0FAFD01AA03A94D4800F09BF90199F4
:100A100003A800F0A4F923B0F0BD000041380000A5
:100A200018B5A1B0040000200090200000F0B9F932
:100A3000200000F058FA6A4601A9BB4800F082F98C
:100A4000009901A800F08BF901F0ECFD22B010BD77
:100A5000433000004338000000CA9A3BF8B5A2B00A
:100A6000040000200190200000F09BF9200000F01D
:100A70003AFA6D46200000F036FA2870200000F0A7
:100A800032FA6870684600F043FB6946C87020007F
:100A900000F029FA200000F026FA2870200000F06B
:100AA00022FA6870684600F033FB694688702000BF
:100AB00000F019FA200000F016FA2870200000F06B
:100AC00012FA6870684600F023FB0700200000F06F
:100AD0000AFA01AA02A9954800F034F9019902A87E
:100AE00000F03DF96846C07801F054FE6846807811
:100AF00001F05CFE3800C0B201F052FE8C4D8D4E0C
:100B000033002A003221322001F076FE8A4B2A007F
:100B10003221322001F070FE002001F03BFE002067
:100B200001F044FE002001F03BFE33002A00322198
:100B3000322001F061FE00F0E6FE23B0F0BD0000BF
:100B400042380000F0B5A3B004000020019020005E
:100B500000F027F9200000F0C6F96D46200000F0F3
:100B6000C2F92870200000F0BEF96870684600F0F5
:100B7000CFFA0290200000F0B6F92870200000F0B3
:100B8000B2F96870029E684600F0C2FA0002371897
:100B9000200000F0A8F92870200000F0A4F9687087
:100BA000684600F0B5FA00043E18200000F09BF9FA
:100BB0002870200000F097F96870684600F0A8FAE5
:100BC00000063518280000F024FC200000F08BF906
:100BD00001AA03A9594800F0B5F8019903A800F04B
:100BE000BEF823B0F0BD000043360000F8B5A4B055
:100BF000040000200390200000F0D3F8200000F053
:100C000072F96D46200000F06EF92870200000F0A7
:100C10006AF96870684600F07BFA0190200000F0E5
:100C200062F92870200000F05EF96870019E684645
:100C300000F06EFA000230180190200000F053F925
:100C40002870200000F04FF96870019E684600F09F
:100C50005FFA000430180190200000F044F9287079
:100C6000200000F040F96870019E684600F050FADC
:100C7000000630180190200000F035F9287020009F
:100C800000F031F96870684600F042FA02902000E6
:100C900000F029F92870200000F025F96870029E04
:100CA000684600F035FA000230180290200000F08B
:100CB0001AF92870200000F016F96870029E684644
:100CC00000F026FA00043718200000F00CF9287014
:100CD000200000F008F96870684600F019FA000674
:100CE0003E18200000F0FFF82870200000F0FBF80C
:100CF0006870684600F00CFA0500019800F0ACFB43
:100D0000300000F0CCFB280000F0D7FB200000F002
:100D1000EAF803AA04A90A4800F014F8039904A801
:100D200000F01DF825B0F0BD304500003145000051
:100D3000C1180008D18C0008A587000832450000C2
:100D40003345000010B413680400A4B2240ACC5444
:100D50005B1C0400CC545B1C136010BC704738B59E
:100D600004000D000D2060556D1C0A2060556D1C9F
:100D70002100280001F03EFE31BD7CB506000C00CC
:100D8000150000200090300000F0EAF86A462100CB
:100D9000280080B2FFF7D6FF00992000FFF7DFFFA1
:100DA00073BD10B50400200000F09DF8200000F095
:100DB0009AF810BD80B594B00FA83149122201F005
:100DC00089FE0AA82F49122201F084FE05A82E49A7
:100DD000122201F07FFE01A82C490D2201F07AFEBB
:100DE00068462B490A8802800FA9122001F002FEF2
:100DF0006946022001F0FEFD0AA9122001F0FAFD69
:100E00006946022001F0F6FD05A9122001F0F2FD6D
:100E10006946022001F0EEFD0FA9122001F0EAFD63
:100E20006946022001F0E6FD01A90D2001F0E2FD76
:100E30006946022001F0DEFD15B000BD00B585B0A9
:100E400068461449122201F045FE6946062001F069
:100E5000D1FD05B000BD80B500A8801C0E490A88F0
:100E6000028068460D490A88028000A9891C022078
:100E700001F0C0FD6946022001F0BCFD01BD00008B
:100E8000AC9F0008C09F0008D49F00080CA0000879
:100E90009E1F0008E89F000822260008EE2A00088E
:100EA0004068704710B502001069002802D1002088
:100EB000C04317E050681368984202D10020C04335
:100EC00010E0D0680170D068401CD060D068136911
:100ED00014681B19984201D31069D0605068401CF7
:100EE0005060002010BD10B501000869002802D133
:100EF0000020C04315E04868002802D10020C0430C
:100F00000FE0886800788A68521C8A608A680B69DA
:100F10000C681B199A4201D30A698A604A68521EFA
:100F20004A6010BD00B502001069002802D10020FF
:100F3000C04314E05068884202D20020C0430EE053
:100F400090681369C01A40181368984205D39068D6
:100F5000401811684A42805C01E09068405C00BD26
:100F6000016981600169C160002141607047F1B48D
:100F70000168421841684808131800988068C9073A
:100F80001ED5494640181BE01778521C0770401CBC
:100F9000761EF9D1002C13D01678521C89080D400A
:100FA000032D01D11578521C290271184D424119A7
:100FB000A41C05D00D78491C0570401C641EF9D195
:100FC0009A420FD01178521C032503260E4002D1FD
:100FD0001678F61C521C0C090F2CD9D114780F343A
:100FE000521CD5E700980C30F2BC704780B501F078
:100FF000E7F880B202BD80B5FFF7F8FF010089B2C3
:101000000B4A914202DBAF2109010800E121C9002E
:10101000020092B28A4200DA080080B20549401804
:1010200064214843FA21890001F098F980B202BD99
:10103000F10A0000F8F8FFFF00B501000800C0B297
:1010400030280FD022D3322810D00DD3342811D01D
:101050000ED3362812D00FD3382813D010D3392806
:1010600012D013E0002012E0012010E002200EE078
:1010700003200CE004200AE0052008E0062006E03A
:10108000072004E0082002E0092000E0FF2000BD66
:10109000F4B504000D0068460078461E300000B22A
:1010A00000280FD40A272000390001F05AF9303106
:1010B000300000B229542000390001F052F9040038
:1010C000761EEBE70020694609786854F1BD10B53B
:1010D0000200D2B212091300DBB20A2B03DA1300AA
:1010E00030330B7002E0130037330B704B1C0107D9
:1010F000090F0C00E4B20A2C03DA0A0030321A702D
:1011000002E00A0037321A705A1C0023137010BD17
:1011100010B5010000231A0018001C00E4B2022CD4
:1011200032DA1C00E4B20C5D302C0ADB1C00E4B2A5
:101130000C5D3A2C05DA1C00E4B20C5D303C220058
:101140001EE01C00E4B20C5D612C0ADB1C00E4B262
:101150000C5D672C05DA1C00E4B20C5D573C2200E4
:101160000EE01C00E4B20C5D412C09DB1C00E4B273
:101170000C5D472C04DA1C00E4B20C5D373C220005
:10118000000180185B1CC8E7C0B210BD38B5040070
:101190000D000A2C06D2012229002000FFF778FF5B
:1011A000012023E0642C06D2022229002000FFF750
:1011B0006FFF02201AE0FA208000844206D2032248
:1011C00029002000FFF764FF03200FE00848844255
:1011D00006D2042229002000FFF75AFF042005E070
:1011E000052229002000FFF753FF052032BD000033
:1011F0001027000080B501F07BFC007902BD10B51E
:10120000040004212000C0B201F082F910BD80B5B5
:1012100001F06EFC007A02BD10B504000821200028
:10122000C0B201F075F910BD80B501F061FC007B22
:1012300002BD10B504000C212000C0B201F068F915
:1012400010BD80B501F054FC1430006802BD10B52B
:1012500004001421200001F098F910BD80B501F0C0
:1012600047FC010018310A680648824201D100207B
:1012700000E0012002BD80B51821034801F085F986
:1012800001BD0000EFBEADDE3713BAAB80B501F093
:101290002FFC2030006802BD10B504002021200082
:1012A00001F073F910BD80B501F022FC50300068E8
:1012B00002BD10B5FFF7F7FF0400641C50212000A9
:1012C00001F063F910BD80B501F012FCA430006894
:1012D00002BD10B50400A421200001F056F910BD94
:1012E00010B504009821200001F04FF910BD80B521
:1012F00001F0FEFB38300078C0B202BD80B501F0CD
:10130000F7FB40300078C0B202BD80B501F0F0FBC1
:1013100044300078C0B202BD80B501F0E9FB48302E
:101320000078C0B202BD80B501F0E2FB5430006825
:1013300002BD10B504009C212000C0B201F0E8F805
:1013400010BD10B50400A0212000C0B201F0E0F8EB
:1013500010BD80B501F0CCFB8030006802BD80B5C7
:1013600001F0C6FB8430006802BD80B501F0C0FB0F
:101370008830006802BD80B501F0BAFB8C3000688F
:1013800002BD80B501F0B4FB9030006802BD80B5AD
:1013900001F0AEFB9430006802BD80B501F0A8FBFF
:1013A000802149004018006802BD10B5040080216A
:1013B0004900200001F0E9F810BD80B501F098FB6C
:1013C000822149004018006802BD10B50400822146
:1013D0004900200001F0D9F810BD80B501F088FB6C
:1013E00024300078C0B202BD80B501F081FB253009
:1013F0000078C0B202BD80B501F07AFB26300078DB
:10140000C0B202BD80B501F073FB27300078C0B2D6
:1014100002BD10B504002421200001F0B6F810BD73
:1014200080B501F065FB28300078C0B202BD80B500
:1014300001F05EFB29300078C0B202BD80B501F03A
:1014400057FB2A300078C0B202BD80B501F050FBD6
:101450002B300078C0B202BD10B504002821200056
:1014600001F093F810BD80B501F042FB2C300078FC
:10147000C0B202BD80B501F03BFB2D300078C0B298
:1014800002BD80B501F034FB2E300078C0B202BD41
:1014900080B501F02DFB2F300078C0B202BD10B531
:1014A00004002C21200001F070F810BD80B501F07F
:1014B0001FFB30300078C0B202BD10B504003021EF
:1014C000200001F062F810BD80B501F011FB34304E
:1014D0000078C0B202BD10B5040034212000C0B2B3
:1014E00001F016F810BD801010B500231A008A42D2
:1014F00003D21C008454521CF9E710BDF8B5C4B0E7
:10150000FFF7E2FF012802D0022803D005E000F037
:101510006EFC06E000F0ACFC03E000F065FA00F0C1
:10152000CFF90A2000F02AFD00F00CFC00F0E3FBEC
:10153000012000F023FD694600A8401C01F0DCFA00
:1015400007003A00684601786846407800F0B8F82D
:10155000FF2104A8FFF7C8FF04AA6846017868467F
:10156000407800F0DEF801ACFFF737FF2070FFF79E
:101570003BFF6070FFF73FFFA070FFF743FFE07095
:1015800004206946087005206946487001AA68462B
:1015900001786846407800F093F8FF2104A8FFF72F
:1015A000A3FF04AA684601786846407800F0B9F8BD
:1015B000694600A8401C01F0A6FA06003200684601
:1015C00001786846407800F07BF8FF2104A8FFF717
:1015D0008BFF04AA684601786846407800F0A1F8BD
:1015E000694600A8401C01F095FA05002A006846EB
:1015F00001786846407800F063F8FF2104A8FFF7FF
:1016000073FF04AA684601786846407800F089F8BC
:10161000FFF706FF2070FFF70AFF6070FFF70EFF6D
:10162000A070FFF712FFE070FFF71DFF2071FFF7BA
:1016300021FF6071FFF725FFA071FFF729FFE0711F
:10164000FFF734FF20720920694608705A20694666
:10165000487001AA684601786846407800F030F882
:10166000FF2104A8FFF740FF04AA684601786846F6
:10167000407800F056F800F0DFFA45B0F0BD80B5D4
:1016800000F01BFB00F0FAFA00F080FBFFF71CFFF4
:10169000012802D0022803D005E000F0CBFB06E0D1
:1016A00000F009FC03E000F09FF900F009F901BD2A
:1016B00080B500F08AFB01BD80B500F08FFB01BD55
:1016C000F7B5C2B000206946887101A800210180E9
:1016D00042A8007801A94870FFF7EAFF4A4EFA25B0
:1016E000AD00684684790095022302AA01A9300062
:1016F00001F083FA2043070002AC009543A8037869
:101700009BB2A21C4499300001F077FA05003D43DA
:10171000FFF7D2FF3D48217801706178417045B0F4
:10172000F0BDF1B5C2B00F00160002A83849802202
:10173000520001F0B5F942A8007802A94870FFF7FD
:10174000B7FF314DFA24A4000094022301AA02A994
:10175000280001F052FA00943B00DBB29BB2320049
:1017600002A9280001F049FAFFF7A6FF274801A9BE
:101770000A7802704978417043B0F0BD7CB505002D
:10178000002401A823490A88028001A84570FFF7B8
:101790008FFFFA2080000090022301AA921C01A969
:1017A000194801F02AFA06002643FFF785FF17487B
:1017B00001A9891C0A7802704978417073BD80B50F
:1017C0007720694608706A4601211020FFF778FFEC
:1017D0006C20694608706A4601213020FFF770FFCF
:1017E00001BD80B50720694608706A4601211020B6
:1017F000FFF766FF6020694608706A4601213020C5
:10180000FFF75EFF01BD00007C1000209012002059
:101810007C9A00088618000880B50A2000F0AEFB0C
:101820006220FFF7ABFF012000F0A8FB6620FFF766
:10183000A5FF012000F0A2FB6020FFF79FFF012021
:1018400000F09CFB01BD80B501F030FCFFF756FEB7
:10185000FFF7B5FFFFF7E0FF01BD80B5FFF7C1FF60
:10186000FFF70DFF01F040FC01BD80B501F01EFC4B
:10187000FFF744FEFFF7D0FF01BD80B5FFF7FFFE85
:1018800001F032FC01BD8000F8B507000E00150024
:101890003A00D2B280214900A020C00501F0E0FD4D
:1018A000064C2A00D2B28021200001F0D9FD32007E
:1018B000D2B24021200001F0D3FDF1BD0004005060
:1018C00080B5012201210020FFF7DEFF01BD80B5B8
:1018D000012200210120FFF7D7FF01BD80B50022C2
:1018E00001210120FFF7D0FF01BD80B500220121B9
:1018F0000020FFF7C9FF01BD80B5002200210120B3
:10190000FFF7C2FF01BD80B5012201210120FFF7D1
:10191000BBFF01BD38B586B014210024220001AD03
:10192000280001F0BFFD01209D490A6802430A60BA
:1019300009680140009100992021019102900494CE
:101940000390A024E40501A9200001F0D9FB0122A5
:101950002021200001F084FD07B030BD38B586B0ED
:1019600014210024220001AD280001F09BFD01207C
:101970008B490A6802430A60096801400091009996
:101980002021019102900394A024E40501A92000E4
:1019900001F0B6FB01222021200001F061FD07B01B
:1019A00030BD10B586B01421002201AC200001F03A
:1019B00079FD01209F490A6802430A6009680140D5
:1019C0000091009920210191029002200390A0240F
:1019D000E40501A9200001F093FB00222021200052
:1019E00001F03EFD06B010BDF8B586B0142100250B
:1019F0002A006C46200001F055FD0124684801686A
:101A00002143016001682140059105990221026886
:101A10000A4302600068014005910598802676001F
:101A200001223100A020C00501F01AFD924F0122D1
:101A30004021380001F014FD01228021380001F01E
:101A40000FFD0096019402956946A020C00501F0A3
:101A500057FB40200090019402956946380001F040
:101A60004FFB80200090019402956946380001F0F8
:101A700047FB07B0F0BDF8B586B0142100226C46D4
:101A8000200001F00FFD0125454C2068284320600F
:101A9000206828400590059880204000009003268B
:101AA00001960295A027FF056946380001F028FB42
:101AB000012280214900380001F0D2FC0220216877
:101AC000014321602168084005900598402000905E
:101AD00001960295684F6946380001F011FB01221A
:101AE0004021380001F0BCFC802000900196029556
:101AF0006946380001F004FB01228021380001F022
:101B0000AFFC2068012188432060206802218843BF
:101B1000206007B0F0BD38B586B014210024220043
:101B200001AD280001F0BEFC02201D490A680243F5
:101B30000A60096808400090009801200190029016
:101B400003947F4C01A9200001F0DAFA0022012160
:101B5000200001F085FC07B030BD10B586B014211F
:101B6000002201AC200001F09DFC02200C490A6813
:101B700002430A600968084000900098704C0122F6
:101B80000121200001F06CFC012001900321029151
:101B9000039001A9200001F0B3FA06B010BD0000C7
:101BA0002C10024038B586B014210024220001AD6B
:101BB000280001F077FC01211E4802680A430260F8
:101BC0000268114000910099022102680A430260F4
:101BD0000268114000910099042102680A430260E2
:101BE0000268114000910099082102680A430260CE
:101BF0000268114000910099802102680A43026046
:101C00000068014000910098BA48019003250295B0
:101C10000394049401A9A020C00501F071FAF820F2
:101C2000019002950394049401A9454801F068FAD3
:101C300007B030BD2C10024038B586B01421002406
:101C4000220001AD280001F02DFC0120B9490A68ED
:101C500002430A600968014000910099802109014E
:101C60000191029003940320049001A9A020C005D3
:101C700001F046FA07B030BD0004005038B586B018
:101C800014210024220001AD280001F00BFC0120EA
:101C9000B8490A6802430A60096808400090009841
:101CA00080200001019003200290039401A9A0204C
:101CB000C00501F025FA07B030BD10B586B014217B
:101CC000002201AC200001F0EDFB022099490A68D6
:101CD00002430A6009680840009000988020400094
:101CE0000190032002900120039001A9144801F003
:101CF00007FA06B010BD38B586B0142100242200C2
:101D000001AD280001F0CEFB02208A490A68024397
:101D10000A60096808400090009880256D000195D0
:101D2000012002900394064C01A9200001F0E8F97B
:101D300000222900200001F093FB07B030BD000015
:101D40000004005038B586B014210024220001ADF3
:101D5000280001F0A7FB012087490A6802430A60B6
:101D6000096801400091009980252D02019502909B
:101D70000394A024E40501A9200001F0C1F9012287
:101D80002900200001F06CFB07B030BD38B586B0EB
:101D900014210024220001AD280001F083FB012062
:101DA00075490A6802430A60096808400090009873
:101DB00080200002019003200290039401A9A0203A
:101DC000C00501F09DF907B030BD80B5002280212B
:101DD0000902A020C00501F043FB01BD80B501222E
:101DE00080210902A020C00501F03AFB01BD38B5F1
:101DF00086B014210024220001AD280001F052FB1E
:101E000001205D490A6802430A60096801400091A7
:101E100000991021019102900394A024E40501A9E6
:101E2000200001F06DF901221021200001F018FBC3
:101E300007B030BD38B586B014210024220001ADB2
:101E4000280001F02FFB01204B490A6802430A6079
:101E5000096808400090009810200190032002902B
:101E6000039401A9A020C00501F04AF907B030BDD4
:101E700038B586B014210024220001AD280001F0FD
:101E800011FB01203C490A6802430A6009680140CD
:101E9000009100991021019102900394A024E4057F
:101EA00001A9200001F02CF901221021200001F0ED
:101EB000D7FA07B030BD38B586B01421002422000F
:101EC00001AD280001F0EEFA01202B490A68024317
:101ED0000A600968084000900098102001900320D3
:101EE0000290039401A9A020C00501F009F907B0F0
:101EF00030BD0000D09F000038B586B0142100240A
:101F0000220001AD280001F0CDFA01201A490A682B
:101F100002430A6009680140009100994021019143
:101F20000294039001A9A020C00501F0E9F807B0D0
:101F300030BD00002C10024038B586B014210024BA
:101F4000220001AD280001F0ADFA01200A490A681B
:101F500002430A6009680840009000984020019000
:101F600003200290039401A9A020C00501F0C8F845
:101F700007B030BD2C1002402C10024070B5040098
:101F800001F0B8FA050026000020C043864200D0C8
:101F9000761C01F0AFFA401BB042FAD370BD0D0AB7
:101FA00010B500F074F80A20FFF7E8FF934C002109
:101FB000200001F0A5FA0021200001F003FB04003D
:101FC000200001F049FB00F0B5F810BD8C480088F6
:101FD00080B270473EB58B480168802292000A4368
:101FE0000260082100252A006C46200001F05AFA00
:101FF000824C85482060E563C02000066060A560D3
:102000000720A06301202061E560280020216054A2
:10201000280021216054A562FF20C23060622800A0
:102020002C216054042060612563A5616563E5612E
:10203000200001F089FB002802D0744801F055FF10
:102040002068806AC00CC0042168886270480090D3
:102050008020400101906946200001F0C8FD002861
:1020600002D06C4801F041FF01F0F0FA05002A00AF
:102070000021200001F0ACFA37BD80B55F4801F0C7
:1020800068FC60480168644A0A40026001BD3EB5D0
:102090005C480168802292000A4302600821002502
:1020A0002A006C46200001F0FDF9544C564820608F
:1020B000E563C02000066060A5600720A0630120E2
:1020C0002061E5602800202160542800212160540F
:1020D000A562FF20C230606228002C2160540420D9
:1020E00060612563A5616563E561200001F02CFB5B
:1020F000002802D0454801F0F8FE2068806AC00C34
:10210000C004216888624548009080204001019009
:102110006946200001F06BFD002802D03D4801F027
:10212000E4FE01F093FA05002A000021200001F0EE
:102130004FFA37BD80B5314801F00BFC31480168DA
:10214000354A0A40026001BD38B52C4D280001F027
:1021500063FC0A21280001F0C9FC280001F044FDBD
:102160000400280001F090FC200080B232BDF8B5D8
:102170002B4869460880002634003500062E16DA02
:10218000FFF7E2FF070038006946098880B28842FD
:1021900001D2684607802000390080B289B28842A7
:1021A00000D23C00380080B22D18761CE6E7684665
:1021B0000088281A210089B2401A800880B2F2BD36
:1021C00010B5FFF764FFFFF7D2FF0400FFF7B2FF7F
:1021D000FFF7FCFE134941430800210000F0C1F85D
:1021E00011494843400A1149884201D30A3803E0A3
:1021F0000F49884200D20A3080B210BD2010002062
:102200007800F81F34100240002401400200020050
:102210000200000403000200FFFDFFFF0000024473
:10222000FFFF0000B80B00000B0200006B0900006C
:102230005609000038B5FFF7C3FF0500FFF7CAFED7
:10224000FFF795FF0400FFF718FF280080B2A4B243
:102250006043001380B232BD030018004843D040F1
:1022600080B27047FEB501F045F90700002401F087
:1022700061FEFFF773FB0520FFF780FEFFF7A0FF6D
:1022800001900B2226490198FFF7E6FF6946088076
:102290000B2224490198FFF7DFFF69464880FFF7CA
:1022A000C9FF050028006946098880B288422DD2FE
:1022B00001F040FE1C4E01F01DF9C01BB04203D2DC
:1022C00001200400FFF7FCFA01F014F9C01BB04232
:1022D00009D301F00FF9C01B1449884203D2022030
:1022E0000400FFF7FBFA01F005F9C01B0F49884213
:1022F00003D303200400FFF7EAFAFFF79BFF050072
:1023000028006946498880B28842D1D3FFF749FB4B
:10231000FFF7F9FA01F00EFE2000C0B2FEBD00008A
:1023200033050000CD0600008813000010270000D0
:10233000F446002804D4494200F013F840426047B4
:102340004042002905D45FD000F00BF840424942DA
:102350006047494200F005F84942604703460B4395
:10236000E6D40022030A8B420BD203098B4219D216
:1023700043088B422ED2411A00D2014652411046E8
:102380007047FF2209023FD012068B4205D312127A
:1023900009028B4201D31212090203098B4219D39D
:1023A00000E0090AC3098B4201D3CB01C01A524194
:1023B00083098B4201D38B01C01A524143098B42DE
:1023C00001D34B01C01A524103098B4201D30B01C7
:1023D000C01A5241C3088B4201D3CB00C01A5241EC
:1023E00083088B4201D38B00C01A524143088B42B1
:1023F00001D34B00C01A5241884200D3401A5241C7
:10240000CFD201461046704708B501F0A7FD08BDC0
:1024100038B500252C0001F0A3FD05002000C0B256
:102420000A2803DA2800C0B20028F4D12800C0B27C
:10243000002801D1012000E0002032BD38B5002580
:102440002C0001F0A9FD05002000C0B20A2803DA23
:102450002800C0B20028F4D12800C0B2002801D161
:10246000012000E0002032BD70B5040000263500D8
:1024700000F03EFB001901F096FD06002800C0B2F6
:102480000A2803DA3000C0B20028F1D13000C0B20F
:10249000002801D1012000E0002070BDF8B5070040
:1024A0000E000024250000F023FB3A0081190020D3
:1024B00001F094FD04002800C0B20A2803DA2000CD
:1024C000C0B20028EFD12000C0B2002801D1012005
:1024D00000E00020F2BDF8B506000D000024270042
:1024E00000F006FB32004119022001F077FD0400E4
:1024F0003800C0B20A2803DA2000C0B20028EFD1A9
:102500002000C0B2002801D1012000E00020F2BD6F
:10251000F8B506000C0000252F0000F0E9FA0019BC
:10252000007869460870684600783100C9B2884270
:1025300001D1012028E001F0FDFCFFF769FF200038
:10254000FFF792FF21003000C0B2FFF7A7FF00F0B5
:10255000CFFA001900783100C0B2C9B2884209D15F
:1025600001F09DFD002803D101F07EFC00200BE06E
:10257000012009E03800C0B20028DCD06D1C280022
:10258000C0B20828D7DA0020F2BDF8B506000C006A
:1025900000252F0000F0ACFA0019006800900098A8
:1025A000B04201D1012026E001F0C4FCFFF730FF6A
:1025B0002000FFF759FF21003000FFF78CFFFFF7E5
:1025C0003DFF00F095FA00190068B04209D101F012
:1025D00066FD002803D101F047FC00200BE001203C
:1025E00009E03800C0B20028DED06D1C2800C0B25F
:1025F0000828D9DA0020F2BD70B504000D002800CB
:10260000C0B2860031002000FFF7BFFF70BD38B5B3
:1026100004002000C0B2850000F06AFA401900688A
:1026200032BD3830F8B501270025534E28003070F0
:10263000307800280FD0102815D0202824D030283A
:102640002AD040284CD050285AD060286AD0702810
:1026500000D17EE08EE001F03CFD01F090FD2C0009
:102660001020307086E0454800F05AF9002807D164
:10267000641CFEF74AFE844205D301F091FD7AE026
:102680002C002020307075E000F0A1F800F098F8E0
:102690002C00302030706DE0384800F086F90028BA
:1026A00007D1641CFEF731FE844218D301F078FD97
:1026B00061E000F089F869460870C0B200280BD1CB
:1026C000641CFEF722FE844203D32C0040203070AD
:1026D00005E03020307002E02C004020307049E0EE
:1026E00000F072F869460870C0B2012805D1FEF703
:1026F000C2FD2C00502030703CE001F090FD3AE02B
:1027000000F06DF8012807D101F0DEFC01F033FD87
:102710002C006020307004E0012007002C007020A5
:10272000307027E001F02BFD144800F0F9F8002884
:1027300007D1641CFEF7E9FD844209D32800070095
:1027400018E0FEF7B6FD012007002C007020307065
:1027500010E068460078012809D13800C0B201288D
:1027600002D101F09BFD04E001F0D7FD01E001F092
:1027700056FD00E05CE7F1BD94120020DD18000872
:1027800080B500F0B7FE02BD10B504002000FFF7D1
:10279000F5FB10BD13490870704712480078704768
:1027A0001149087070471048007870470F49087049
:1027B00070470E480078704701200D490870704737
:1027C00000200B49087070470948007870470020C6
:1027D000084908707047012006490870704705488D
:1027E00000787047A4120020A5120020A612002035
:1027F000A7120020A8120020FBB582B0160001F03D
:1028000006FE01F0B7FF744D03986860734C0298A0
:102810006060200002F018F8FFF7B2FF039A010091
:10282000280001F0E9FFFFF76EF80498804702F0F6
:1028300017F8FFF7A5FF0100280001F0E6FF0128C7
:102840000CD1FFF79DFF0100200002F000F82800E6
:1028500001F0FAFF3000002800D0B047FFF790FFEA
:102860000100200001F0D1FF01280AD1FFF788FF05
:102870000100280001F0EBFF200001F0E5FFFFF769
:1028800042F801F057FB00F035FE01F058FE01F070
:10289000F1FF6946087068460078002803D0684652
:1028A0000078012800D134E06846007810282AD149
:1028B000002701F03FFBFFF763FF0100280001F054
:1028C000A4FF01280CD1FFF75BFF0100200001F0FD
:1028D000BEFF280001F0B8FF3000002800D0B0474C
:1028E000FFF74EFF0100200001F08FFF012809D102
:1028F000FFF746FF0100280001F0A9FF200001F0CA
:10290000A3FF07E0D5E768460078FF2801D101273B
:1029100000E08EE701F07FFD3800C0B205B0F0BDE9
:1029200010B504002E4B22002E49FA204000FFF77C
:1029300063FF01000800C0B2002802D0012802D0C5
:1029400003E0012002E0002000E0002010BD10B5EF
:102950000400254B22002349FA204000FFF74CFFDA
:1029600001000800C0B2002802D0012802D003E014
:10297000012002E0002000E0002010BD10B504009E
:102980001A4B22001749FA204000FFF735FF0100DB
:102990000800C0B2002802D0012802D003E00120C4
:1029A00002E0002000E0002010BD10B50400104B34
:1029B00022000C49FA204000FFF71EFF010008002A
:1029C000C0B2002802D0012802D003E0012002E0BA
:1029D000002000E0002010BD5811002068110020E8
:1029E000D18C000888130000A5870008258F0008F7
:1029F000D192000838B505000C0064232A0092B279
:102A00002100214802F04FF831BD80B501221F4955
:102A10001D4802F0BFF801BD80B51B481C4901608C
:102A2000E1214902416000218160C16001610C2205
:102A30004261816180221202C2610162416242638D
:102A4000802252030264416401F0CEFF002802D0CC
:102A5000104801F04AFAFFF7D8FF01BD80B5FFF733
:102A6000DBFF01BD10B5084C200002F015F9200075
:102A700001F0FAFF08480168084A0A40026010BDE8
:102A80000248007870470000200F0020A3120020A9
:102A9000004400400100020038100240FFFFFDFF2B
:102AA00070B4103A03D378C9103A78C0FBD25307F8
:102AB00001D318C918C001D508C908C0D20704D36A
:102AC0000B880380891C801C002A01D50B780370B9
:102AD00070BC70478B0701D18307E1D0124205D04B
:102AE0000B78491C0370401C521EF9D170470D0A27
:102AF0000048704700000808020002201070012002
:102B000008700848704702000E20107006200870F8
:102B100005487047020030201070012008700348FB
:102B2000704700009C0300207C0300209D030020D0
:102B300038B50400002C01D101203FE0606A002874
:102B40000025A5625120205C002805D128005021D5
:102B50006054200002F0AAFD022051216054206838
:102B6000006840218843216808606068A1680143CB
:102B7000E06808432169014360690843A169802234
:102B8000920011400143E0690843216A0143A06AB1
:102B9000084321680860A069000C04210840616AAC
:102BA0000143206841602068C069054901402068F0
:102BB000C1616565012051216054002032BD0000D3
:102BC000FFF7FFFF10B50400002C01D1012013E036
:102BD0000220512160542068006840218843216808
:102BE0000860200002F093FD002060650100512282
:102BF000A15450216054002010BDFFB585B00400E1
:102C00000E9F012601960025280069460870E0689D
:102C1000002806D1E068002803D16846008C02280D
:102C2000FFD35020205C012801D1022016E13000A2
:102C30005021605400F05EFC03905120205C6946F6
:102C40004870606804906846008C69464880684611
:102C5000407801280FD0049882214900884206D18B
:102C6000A068002803D168464078042803D00220D9
:102C700069460870ECE00698002806D007980028FE
:102C800003D06846008C002803D1300069460870E4
:102C9000DEE05120205C042802D005205121605440
:102CA00065650798A0636846008CE0876846008CDD
:102CB000A087069820636846008CE0866846008CF2
:102CC000A0862564656440202168096801400029C8
:102CD00004D121680968084321680860E068802100
:102CE000090188424DD16068002803D068464088B9
:102CF000012809D1206B00882168C860206B801CE6
:102D00002063E08E401EE086E08E002803D1E08F35
:102D1000002800D184E020688068800710D5E08E0C
:102D200000280DD0019801280AD1206B0088216865
:102D3000C860206B801C2063E08E401EE0860195F9
:102D400020688068304000280DD0E08F00280AD02D
:102D50002068C068A16B0880A06B801CA063E08F16
:102D6000401EE087019600F0C5FB0399401AB84267
:102D7000CAD30020C0438742C6D0032069460870EA
:102D800066E06068002803D068464088012809D1C1
:102D9000206B007821680873206B401C2063E08E54
:102DA000401EE086E08E002802D1E08F002837D058
:102DB00020688068800710D5E08E00280DD001982B
:102DC00001280AD1206B007821680873206B401C11
:102DD0002063E08E401EE0860195206880683040C8
:102DE00000280DD0E08F00280AD02068C068A16BB1
:102DF0000870A06B401CA063E08F401EE087019626
:102E000000F078FB0399401AB84203D30020C04376
:102E1000874201D1002FC5D103206946087017E011
:102E2000039A3900200000F011F9002805D0300085
:102E300069460870202060650AE0A068002807D174
:102E400002952068C068029020688068029002980D
:102E500051202654502025546846007809B0F0BD12
:102E6000F8B504002068476820688568412028403C
:102E7000012805D1780603D52000216C884784E01D
:102E8000A80705D5380603D52000616C88477CE08B
:102E9000B02040002840002877D02020074274D07E
:102EA000402635421BD05121615C03290DD0616D54
:102EB00004220A436265002100912168C9680091DB
:102EC000216889680091009909E00020009020683D
:102ED000C0680090206880680090009855E0284005
:102EE00000280FD0606D0121014361650020009032
:102EF000206880680090206800684021884321682D
:102F000008600098E80509D5606D082101436165F6
:102F1000002000902068806800900098606D002874
:102F200032D020684068E021884321684860012051
:102F300051216054B807800F002822D020684068D3
:102F40000321884321684860E06C00280AD01548B6
:102F5000E16C8863E06C02F0BFFC002802D0606D79
:102F600030436065A06C00280ED00E48A16C8863C9
:102F7000A06C02F0B1FC002806D0606D06436665C7
:102F800002E0200002F0D9FCFFE7F1BD000038B5F7
:102F90000400A56A0020E887E886280002F0CDFC3E
:102FA00031BD00008F2F0008F4B504000F001D0094
:102FB000069E206880683840B84201D1012000E0B8
:102FC00000206946097888423DD00020C0438542F0
:102FD000EFD000F08FFA801BA84201D2002DE8D17B
:102FE00020684068E0218843216848606068822149
:102FF000490088420FD1A06880210902884204D08C
:10300000A0688021C900884205D12068006840215D
:1030100088432168086080208001A16A81420AD12A
:1030200021680968204A0A4021680A602168096805
:10303000084321680860012051216054002050217C
:103040006054032000E00020F2BD00007CB50400C5
:103050000E00150060688221490088420ED100955B
:103060003300002280212000FFF79EFF002818D0A7
:10307000606D202101436165032013E05120205C35
:1030800005280ED100953300002201212000FFF712
:103090008BFF002805D0606D20210143616503206E
:1030A00000E0002076BD0000FFDFFFFF80B5114883
:1030B0001149016082214900416000218160C160A5
:1030C000016141618022920082610822C261016235
:1030D000416281620721C162FFF72AFD002802D008
:1030E000064800F002FF01BD80B50248FFF76AFD07
:1030F00001BD00007C1000200030014006000200ED
:10310000FCB5020000230020019000240868D8408C
:10311000002800D1F1E0012508682E009E400640FD
:1031200001960198002800D1E5E04868022802D005
:10313000486812281FD1D808042670431018076A5F
:10314000072000970F26B4461F0007400426774348
:103150006646BE40009FB743BC460E691F0038401C
:1031600004277843864067463E433400D808042647
:103170007043101804624868012808D04868022883
:1031800005D04868112802D0486812281CD19668DA
:10319000032084461F00022047436046B840864310
:1031A000CF68BC46180002277843674687403743FC
:1031B0009760566828009840864348680009284070
:1031C000984030430400546017680326BC461F0033
:1031D000022047433000B84067468743009748685D
:1031E000304084461F00022047436046B840009F9D
:1031F0003843009000981060D768BC461F0002203A
:1032000047433000B8406746874300978868844644
:103210001F00022047436046B840009F3843040027
:10322000D4604868C00066D5944807682F4307609B
:10323000934884469F08042047436046C059009045
:103240000F27BC461F0030003840042778436746EC
:1032500087400098B843A027FF05BA4201D1002556
:1032600012E0884CA2420FD0874CA24201D1022525
:103270000AE0864CA24201D1350005E0844CA2420E
:1032800001D1052500E006251C00264004246643E4
:10329000B54005437A489C080426744305517D4C8B
:1032A0002068019EB0434E68F60302D505000198E0
:1032B00028432060784D2C68019EB4434E68B603C5
:1032C00002D52000019C04432C60744D2868019EA7
:1032D000B0434E68F60202D50400019820432860EE
:1032E0006F4D2C68019EB4434E68B60202D5200093
:1032F000019C04432C605B1C08E7F3BDF2B582B06F
:103300000100002200200090002001900298D0408F
:10331000002800D196E0012302981C00944004404C
:1033200000940098002800D18AE003240868150062
:10333000022675432600AE4006430E600F25D008D6
:103340000426704308188446D008042670430818E1
:10335000076A10004607760F042046432800B04055
:103360008743604607628E681700022047432000AB
:10337000B84086438E604E681800904086434E6089
:10338000CE681700022047432000B8408643CE6035
:103390003B4E90080427784330588446170020009D
:1033A0003840042778432F00874060460740019744
:1033B000A020C005814201D1002312E031488142A2
:1033C0000FD03148814201D102230AE02F488142C7
:1033D00001D1230005E02E48814201D1052300E000
:1033E00006230198844617002000384004277843BC
:1033F00083406046984223D1100004400420444397
:10340000A54001959008042358433058019B9843E8
:10341000930804246343F0501E480368009CA343B0
:1034200003601D480368009CA34303601B480368B6
:10343000009CA34303601A480368009CA3430360F5
:10344000521C63E7F7BD00B5020010690B009BB288
:103450001840002801D0012000E00020C0B200BDCB
:1034600000B51300DBB2002B03D00B009BB28361CD
:1034700002E00B009BB2836200BD000034100240EA
:10348000080001400004005000080050000C0050EB
:10349000001C0050000401400404014008040140E5
:1034A0000C0401401206130A1A43130C1A4300BFFE
:1034B000094205D0830705D00270401C491EF9D18E
:1034C000704700001300103906D330B41400150003
:1034D00010393CC0FCD230BC490700D30CC000D529
:1034E00004C0890002D30280801C002900D502702C
:1034F0007047FEE701480068704700BF8C1200204B
:10350000F2B582B0040000252F00019500955020EF
:10351000205C012801D1022053E001263000502117
:1035200060540320216889680140012903D1216882
:103530000968314000E02900002939D1616D424A13
:103540000A400221114361652168C9680840009062
:103550002068C068032188432168C86020688068AB
:1035600080210906014320688160FFF7C3FF0190B5
:103570002068806800280FD5FFF7BCFF0199401A2A
:103580000B28F5D3606D022188431021014361654A
:1035900050202554012014E02068C06800990143A0
:1035A0002068C160606D022188430643666504E0BF
:1035B000606D20210143616537005020255438009B
:1035C000C0B2FEBD0068B42280584006400E70476D
:1035D000F0B503000020040050255D5D012D01D1F0
:1035E000022030E001252E005027DE551E68B66807
:1035F000B607B60F012E03D11E6836682E4000E0D4
:103600000600002E13D01E68B66876070FD41D681A
:10361000B426AD597F26B5431F68B426BD511D6839
:10362000B426AD5915431E68B427F55107E05E6D09
:10363000102737435F659E6D2E439E652C005025F5
:1036400058552000C0B2F0BDFFFEFFFF80B500213D
:10365000364802F066FA02BD10B5040022000021CF
:10366000324802F055FA10BD80B53048304901604B
:10367000002141607F228260FF22C26001614161BE
:103680008161C16102F062FA002802D0294800F08D
:103690002CFC01BD38B50500244C002226496943A5
:1036A000200002F04BF92548016804220A43026019
:1036B0000121012002F0F8FA200002F0C9F931BD21
:1036C00001201F4908707047F8B5FDF7DFFD0500C0
:1036D000322D03D3FF209230854201D3E72005002D
:1036E0002F00124C200002F0B3F9154E002030706C
:1036F00000223900200002F021F9FFF7FBFE040050
:1037000030780028FCD0002C02D10E4800F0EDFBF0
:10371000FFF7F0FE041B642068432100FEF721FE42
:1037200006003000FDF7B8FDF1BD00001C110020BF
:10373000002800400400020008090000007000405A
:10374000A11200200200010010B50400002C01D1DC
:103750000120FDE0606D002806D10020A065502109
:103760006054200001F054FF1021606D08400028D3
:1037700005D10420226892680240002A07D0606DBB
:10378000014361650020502160540120E0E0616D3B
:10379000BC4A0A4002211143616521688968890792
:1037A000890F012905D121680A681100C907C90FCD
:1037B00000E00021002936D16168C0221206914242
:1037C00009D061688022D205914204D061688022CC
:1037D000120691420CD12168096989008908226882
:1037E00011612168096962680A4321680A610EE073
:1037F000216809698900890822681161B7490A6846
:10380000B74B13400B600A68636813430B60216871
:10381000C968182291432268D1602168C968A268EA
:103820000A432168CA60AD490A68AE4B13400B6079
:103830000A68636B5B0613430B60802149052268AD
:1038400092680A40002A04D12268926811432268D3
:1038500091602168C968A44A0A402168CA60216948
:10386000022900D000202168C968E26810432022A4
:10387000A25C520302432C20205C40001043226BC8
:103880000243A06980031043E269D20302430A4362
:103890002068C260606AFF21C231884207D0206878
:1038A000C068616AA26A0A4302432068C26021209C
:1038B000205C012813D12020205C002807D120683B
:1038C000C0688021490201432068C16007E0606D43
:1038D000202101436165A06D01210143A165E06BD9
:1038E000012816D120680069B649014020680161AD
:1038F00020680069216C626C0A43A16C114301438A
:10390000206801612068006901210143206801618C
:1039100009E020680069C00705D520680069012119
:10392000884321680861206840690721884321682D
:10393000486120684069A16B014320684161002013
:10394000A065606D0221884301210143616500206B
:1039500010BDF8B5040000252F00002C01D1012076
:1039600059E0606D022101436165200000F024FAF6
:1039700006003000C0B2002809D1200000F0D8F9BC
:1039800006003000C0B2012801D00120606530007F
:10399000C0B201283BD0206840688B4901402068B4
:1039A00041608A4821680860206880688849014031
:1039B000206881602068C068864901402068C16035
:1039C00020680069844901402068016120684069DD
:1039D00007218843216848612068006A7F490140C7
:1039E000206801622068B42140587F218843216803
:1039F000B42288502068B42140587F218843216830
:103A0000B4228850200001F00FFEA56565655020A6
:103A100025543000C0B2F2BDF8B5040000252F00D7
:103A20000426206880683040002826D15020205C81
:103A3000012801D1022024E0012050216054E069D6
:103A4000012803D0200000F02BF907003800C0B295
:103A5000002814D1606D6249014080204000084375
:103A60006065A565502025541C20216808602068E9
:103A7000806806432068866001E002200700380065
:103A8000C0B2F2BDFFFEFFFFF8B504000025684696
:103A900005705020205C012801D102201CE0012685
:103AA000300050216054200000F086F907003800F3
:103AB000C0B200280CD1200000F03AF9070038000D
:103AC000C0B2002804D1606D464901400E436665CE
:103AD000502025543800C0B2F2BD00000827014034
:103AE000FFFFC3FFFFFFFFFD1902FEFFF3B581B02B
:103AF00004000025009529006069082801D10826E6
:103B00000CE02068C068C00707D5606D2022024322
:103B1000626550202554012052E00C26FFF7EAFC94
:103B20000700206800683040002815D10298002165
:103B3000C9438842F5D00298002805D0FFF7DAFC87
:103B4000C01B02998142ECD2606D04210143616582
:103B500050202554032033E0606D8021890001430B
:103B600061652068C068C02109010140002920D199
:103B70002020205C00281CD120680068000718D590
:103B80002068806840070CD4206840680C21884376
:103B900021684860606D1349014001200843606559
:103BA00007E0606D202101436165A06D01210143A3
:103BB000A165A069002802D10C20216808600020BE
:103BC000FEBD000003FCFFFF60F7FFFF9F08000041
:103BD000FFFFFFEF00023E8302FCFF3F00F000F01A
:103BE000FEF1FFFFFFFEFFFF0068006C704738B575
:103BF00005000C005020285C012801D102204DE076
:103C000001205021685428688068400708D5686DF5
:103C100020210143696500205021685401203DE0C6
:103C20006068414988421DD02868806A216849033C
:103C3000490B0143286881622068400308D53B484E
:103C40000168802212040A4302600A2000F0EAF8A8
:103C5000206880031ED5354801688022D2030A43BC
:103C6000026017E02868806A21684903490B88438D
:103C7000296888622068400304D52C480168674A97
:103C80000A4002602068800304D528480168644A1D
:103C90000A400260002050216854002032BD00001C
:103CA00070B5040000200500216889688907890F24
:103CB000012905D1206801680800C007C00FFFE78F
:103CC00000282ED1206880685F490140002909D072
:103CD000606D102101436165A06D01210143A16563
:103CE00001201FE001262068806830432168886039
:103CF000012000F097F8FFF7FDFB05002068006841
:103D0000304000280DD1FFF7F5FB401B0B28F5D301
:103D1000606D102101436165A06D0643A665012019
:103D200000E0002070BD00000110000008270140E5
:103D300070B5040000210D00032022689268024043
:103D4000012A05D121680A681100C907C90FFFE7D8
:103D500000292FD02168896805220A40012A0BD149
:103D60002168896802220A4321688A602168086004
:103D7000FFF7C0FB050009E0606D1021014361659C
:103D8000A06D01210143A165012014E001262068F6
:103D90008068304000280DD0FFF7ACFB401B0B289B
:103DA000F4D3606D102101436165A06D0643A665E3
:103DB000012000E0002070BD70B50400002504263D
:103DC000206880683040002825D020688068304016
:103DD000002809D020688068800705D420688068A2
:103DE0001021014320688160FFF784FB05002068F3
:103DF0008068304000280ED0FFF77CFB401B0B286A
:103E0000F5D3606D102101436165A06D012101436F
:103E1000A165012000E0002070BD0000FFFF7FFFD2
:103E2000FFFFBFFF18B50400084800680849FEF707
:103E300098FA604300900098002803D00098401E34
:103E40000090F8E711BD00001700008084030020F7
:103E500040420F0010B5FDF7E7F9012404432000AC
:103E6000C0B2FDF7E6F910BD10B5FDF7DDF902248B
:103E700004432000C0B2FDF7DCF910BD10B5FDF71A
:103E8000D3F9042404432000C0B2FDF7D2F910BDD9
:103E900010B5FDF7C9F9082404432000C0B2FDF7AE
:103EA000C8F910BD10B5FDF7BFF910240443200078
:103EB000C0B2FDF7BEF910BD10B5FDF7B5F920246D
:103EC00004432000C0B2FDF7B4F910BD10B5FDF7F2
:103ED000ABF9402404432000C0B2FDF7AAF910BD9D
:103EE00080B50020FDF7A5F901BD704780B51648E3
:103EF00016490160042141601549C160816001F0EB
:103F0000F3FE002803D080208002FFF7EEFF01BD02
:103F100080B50D480D490160062141600D49C16021
:103F2000816001F0E1FE002803D080208002FFF7CD
:103F3000DCFF01BD80B5044801F004FF002802D079
:103F40000548FFF7D2FF01BD0812002000300040F5
:103F500009090000FF0F0000010001007047FEE7A3
:103F600010B501200B4A13680340002B10D0EFF36B
:103F70001083190072B6394B394C1C60394C1C60E7
:103F800081F3108812681040002801D0012000E061
:103F9000002010BD042002403348016801220A437A
:103FA000026000207047F8B5070000242000694631
:103FB0000870FA25AD00280001F0D0FE06003000A0
:103FC000C0B2002806D1294844613C60280001F0B5
:103FD000C5FE06003000C0B2F2BD0000F7B582B0E9
:103FE00001242000694608701B4D287C012801D15E
:103FF00002202EE0200028741D4F380001F0AEFE94
:1040000006003000C0B200281FD10020686102986D
:10401000022803D10498039908600EE00298012851
:1040200003D104980399088007E00298002803D17F
:1040300004980399087000E026003000C0B2002800
:1040400003D0380001F08AFE0600002028743000FA
:10405000C0B205B0F0BD0000401100200C200240AD
:10406000EFCDAB890504030204200240401100207B
:1040700050C3000080B53F21014801F034FF02BD6C
:104080000000080810B5FFF7F5FF0400FDF795F9EB
:1040900001008C4201D1012000E0002010BD10B5CC
:1040A000FFF7E8FF04002000FDF78FF910BDFEE7E1
:1040B00080B50120FDF7B0F801BD80B50020FDF707
:1040C000ABF8FFF703FF01BD80B50020FDF7A4F8B2
:1040D00001BD10B5FCF78FFFC0B2FDF790F8FDF7FA
:1040E00089F80400FDF703F9E4B2844204D2FDF735
:1040F000A8F8401CFDF7ABF810BD80B5FDF7A1F89E
:10410000FF218843FDF7A3F801BD80B5FCF773FFDD
:10411000642801DB012000E0002002BD10B504008E
:104120002000C0B201280ED002280FD0042810D0E1
:10413000082811D0102812D0202813D0402814D0DD
:10414000802815D016E0FFF785FE13E0FFF78CFE00
:1041500010E0FFF793FE0DE0FFF79AFE0AE0FFF78D
:10416000A1FE07E0FFF7A8FE04E0FFF7AFFE01E0C5
:10417000FFF770FE10BD80B5FFF7B2FE01BD80B540
:10418000FDF745F8C0B2FEF705FBFDF74DF8C0B2EC
:10419000FEF706FBFCF72FFFC0B2FEF707FB01BDE1
:1041A00070B500247D4E322070607D4D686028001F
:1041B00000F04AFBFEF7E4FA32220100300000F082
:1041C0001BFBFEF7DDFA0100300000F01EFB0128AA
:1041D0000AD1FEF7D5FA0100280000F038FB3000C4
:1041E00000F032FBFDF76CFBFEF7CAFA0100280075
:1041F00000F00BFB01280BD1FEF7C2FA01003000E2
:1042000000F025FB280000F01FFB641CFDF77BFB82
:10421000FFF790FE2000C0B22828D2DB70BD70B539
:1042200000245E4EC82070605D4D6860280000F07C
:104230000BFBFEF7A5FAC8220100300000F0DCFA03
:10424000FEF79EFA0100300000F0DFFA01280AD1E3
:10425000FEF796FA0100280000F0F9FA300000F0AD
:10426000F3FAFDF72DFBFEF78BFA0100280000F0B2
:10427000CCFA01280BD1FEF783FA0100300000F0E0
:10428000E6FA280000F0E0FA641CFDF73CFBFFF7BB
:1042900051FE2000C0B20A28D2DB70BD70B50024E8
:1042A0003E4EC82070603E4D6860280000F0CCFA99
:1042B000FEF766FAC8220100300000F09DFAFEF712
:1042C0005FFA0100300000F0A0FA01280AD1FEF7E1
:1042D00057FA0100280000F0BAFA300000F0B4FAF2
:1042E000FDF7F5FAFEF74CFA0100280000F08DFA10
:1042F00001280BD1FEF744FA0100300000F0A7FAC4
:10430000280000F0A1FA641CFDF7FDFAFFF712FE89
:104310002000C0B20A28D2DB70BD70B500241F4E49
:10432000C82070601E4D6860280000F08DFAFEF70E
:1043300027FAC8220100300000F05EFAFEF720FAEA
:104340000100300000F061FA01280AD1FEF718FAE6
:104350000100280000F07BFA300000F075FAFDF74C
:10436000B6FAFEF70DFA0100280000F04EFA012817
:104370000BD1FEF705FA0100300000F068FA2800C2
:1043800000F062FA641CFDF79BFAFFF7D3FD2000F2
:10439000C0B20A28D2DBFDF7B6FA70BD18000020C3
:1043A0002800002038B505000C0064232A0092B2D2
:1043B0002100224800F077FB31BD80B50122204961
:1043C0001E4800F0E7FB01BD80B51C481D49016097
:1043D000E1214902416000218160C16001610C223C
:1043E0004261816180221202C261016248234362FC
:1043F0004263802252030264416400F0F5FA00280F
:1044000002D01148FFF771FDFFF7D7FF01BD80B55E
:10441000FFF7DAFF01BD10B5084C200000F03CFCAE
:10442000200000F021FB09480168094A0A400260A7
:1044300010BD03480078704700000000A00E002067
:10444000A212002000380140010002003410024096
:10445000FFBFFFFF38B505000C00280001F082FD0A
:10446000AC6131BD80B5724801F043FF02BD80B53B
:10447000704801F03EFF02BDF8B505206C490860A8
:1044800028276B48476000263400052C0DDA6A4D5A
:104490006A48282161434118242060432818FFF707
:1044A000D9FF63488560641CEFE7624D05202860F2
:1044B0006F60052E0CDAAD4CB848282171434118C5
:1044C000242070432018FFF7C5FFAC60761CF0E78E
:1044D000F1BDF8B507000024A54D280001F04EFD00
:1044E00084422AD23A002100280001F05EFE002812
:1044F00001D1641CF0E72100280001F0B8FE009013
:104500000098032817D22100280001F029FF060097
:104510002100280001F0D4FD310001F02EFFA86831
:1045200024216143401843683A002100280001F02B
:1045300050FD641CD0E7002000E00120F2BDF1B581
:1045400082B03B4C200001F0B0FE0700002F01D5E7
:10455000FF206CE03A002100029801F092FF6946CA
:10456000087068460078012818D0022806D0032871
:1045700006D00F2808D01F2804D057E0002056E0AE
:10458000002054E0002052E002F01AF802F02DF86A
:10459000012801D1FF204AE0012048E002F021F883
:1045A0003900200001F0DCFE4078502802D051286C
:1045B0000DD035E01F4801F0E6FD002801D1FF20B5
:1045C00035E03900200001F0A7FD00202FE0194C54
:1045D000200001F032FE0500029A2900200001F0BF
:1045E000FFFD2900200001F042FE032801DBFF202F
:1045F0001DE02900200001F0B3FE06002900200084
:1046000001F05EFD310001F0B8FE06002900200037
:1046100001F056FD864201D0FF2008E0002006E0B0
:104620007249042001F0A9FE802000E0FF20FEBDB9
:104630001812002024120020380D0020A80B0020A2
:10464000F7B582B00024250001F0E8FF070001F073
:10465000E7FF060001F0DCFF01006846007A02284F
:104660001DD1B4421BD22000784300900098085C12
:104670006A46127B904210D16846007C009A8A18E4
:104680005278904209D30098081880786A46127CC4
:10469000904202D30120050001E0641CE1E72800FC
:1046A000C0B205B0F0BDFFB581B0514D280001F09A
:1046B000FCFD06000298FF2801D9FF2054E0029F6C
:1046C000002E01D5FF204FE03A00D2B268460179B2
:1046D0000220FFF7B5FF012801D0FF2044E00222AD
:1046E0003100280001F04CFC6846027931002800B6
:1046F00001F046FC3A00D2B23100280001F040FC43
:1047000000243800C0B2844207D20398025D310011
:10471000280001F035FC641CF3E73C00E4B2E41C23
:104720003100280001F01CFE210001F07BFF020097
:10473000D2B23100280001F023FC641C0094310047
:10474000280001F00DFE0100009801F016FE0400A3
:104750000098844201D0FF2006E00A9B049A3100B1
:10476000280001F06FFC812005B0F0BDEC0D0020A9
:104770002412002080B501F01EFEFFF77DFE1C48CC
:1047800001F0A8FD01F030FE01F02BFF01F030FF39
:10479000184801F09FFD01F00FFE01BD700C0020D4
:1047A00070B505000C0016002100C9B2280001F008
:1047B000B3FD010000203070002903D401203070C7
:1047C000080000E0002070BD38B505000C00220094
:1047D0002900C9B20748FFF7E3FF32BD10B5040056
:1047E0002100044801F098FC10BD00005403002093
:1047F00024120020181200208B180360012303727A
:104800004260C1607047007A704700B50200107ABC
:10481000002801D1002016E01068D368984207D222
:10482000D06881420ED2106888420BD201200AE083
:10483000D068814201D2012005E01068884201D28F
:10484000012000E0002000BD00210172704738B552
:1048500004000D00626829002000FFF7CDFF31BD84
:10486000604908600A6812880B685A80012209684A
:104870000A71704738B55B4C20680079216822685E
:104880000223D25E28235343C9188968884705004C
:104890000020216808712800C0B2002810D001282B
:1048A00019D0022822D003282BD0042834D0102875
:1048B0003DD0202846D0FD284FD0FE2858D062E0B9
:1048C000206821680222895E28224A438018C06835
:1048D0008047009059E0206821680222895E2822E2
:1048E0004A4380180069804700904EE020682168A4
:1048F0000222895E28224A4380184069804700903E
:1049000043E0206821680222895E28224A438018F9
:1049100080698047009038E0206821680222895E23
:1049200028224A438018C069804700902DE0206803
:1049300021680222895E28224A438018006A804743
:10494000009022E0206821680222895E28224A43E2
:104950008018406A8047009017E020682168022292
:10496000895E28224A438018806A804700900CE0C4
:10497000206821680222895E28224A438018C06A82
:104980008047009001E0FF202AE068460078002878
:1049900008D0102808D020280BD030281BD0FF28A2
:1049A0001BD01CE000201BE00120216808710020C2
:1049B00016E068460221405E0021C943884201D1C9
:1049C000FF200DE0012021680871684640882168B9
:1049D0004880012004E0102002E0FF2000E0FF20DA
:1049E00032BD00003812002010B50400002C01D1A7
:1049F000012035E0A0690028FFD1606F002805D1B3
:104A0000002070216054200000F094FE2420606794
:104A1000206800680121884321680860200000F0B8
:104A200081FA012801D101201AE0606A002802D031
:104A3000200000F055FC206840680A4901402068C9
:104A40004160206880682A21884321688860206846
:104A500000680121014320680160200000F0AFFCE4
:104A600010BD0000FFB7FFFF38B50400002C01D1D6
:104A7000012017E024206067206800680121884336
:104A8000216808600025206805602068456020686E
:104A90008560200000F0ADFEE5676567A5677020C2
:104AA0002554002032BDFEB582B00400606F20287E
:104AB0006DD10298002803D068468089002801D172
:104AC000012065E080256D01A068A84207D120691A
:104AD000002804D10298C00701D5012058E07020B9
:104AE000205C012801D1022052E001207021605495
:104AF0000027E76721206067FEF7FCFC019068460D
:104B00008089502160526846808952216052A06895
:104B1000A84205D12069002802D13D00029E01E093
:104B2000029D3E005220205A00281ED0049800907A
:104B3000019B00228021200000F076FC002801D09B
:104B4000032025E0002D06D13088C005C00D216866
:104B50008862B61C03E02878216888626D1C5220A8
:104B6000205A401E52216052DCE704980090019BBD
:104B700000224021200000F057FC002801D0032033
:104B800006E02020606770202754002000E002200B
:104B900005B0F0BDF0B50300986F202872D1002950
:104BA00003D0100080B2002801D101206BE08020EA
:104BB00040019C68844207D11C69002C04D10C0080
:104BC000E40701D501205EE070241C5D012C01D1B9
:104BD000022058E00124250070269D55596558256E
:104BE0005A535A255A5300251D669E6886420AD19B
:104BF0001E69002E03D1254E5C27DE5324E0FF26DC
:104C00005C27DE5320E09E68002E0AD11E69002E2C
:104C100003D1FF265C27DE5316E07F265C27DE5398
:104C200012E09E6880277F05BE420AD11E69002ED1
:104C300003D17F265C27DE5306E03F265C27DE5348
:104C400002E02E005C27DE53DD6722269E671E6889
:104C5000B66834431E68B4609C68844205D1186904
:104C6000002802D10A48186601E00A481866702038
:104C70001D54186800689024640004431868046098
:104C8000002000E00220F0BD00000000FF01000055
:104C9000895500081555000810B504002068006803
:104CA0002D49014020680160206880680121884307
:104CB0002168886020688068000619D520688068AF
:104CC0008021884321688860A06E002810D00020D1
:104CD000A16E8863A06E00F0D5FD002808D0A06EFC
:104CE00000F029FE202803D11020E067032032E0E5
:104CF00020688068400619D5206880684021884374
:104D000021688860E06E002810D00020E16E886382
:104D1000E06E00F0B7FD002808D0E06E00F00BFE5A
:104D2000202803D11020E067032014E000200100B8
:104D30005222A15201005A22A1520F21226811626F
:104D40002168896908220A4321688A6120216167F4
:104D5000A167E067002010BD1FFEFFFFF8B584B01B
:104D600004002068C0690090206807682068806897
:104D7000019000980007000F0390039800280ED1BF
:104D8000202000990140002909D03840002806D091
:104D9000206E002802D02000216E8847BDE00398D5
:104DA000002800D18FE0012001990140002905D1A0
:104DB000902149003940002900D184E00099014048
:104DC000C9B2002906D0F90504D521680862E16F4F
:104DD0000143E1670221009A0A40002A0AD0019AA1
:104DE0000240D2B2002A05D022681162E26F042389
:104DF0001343E3670422009B1340002B09D0019B5F
:104E00000340DBB2002B04D023681A62E26F114327
:104E1000E16708250099294000290BD0B90604D480
:104E200001990840C0B2002804D020680562E06FF4
:104E30002843E067E06F002844D02020009901401B
:104E4000002908D03840002805D0206E002802D064
:104E50002000216E8847E06F02904026206880681D
:104E60003040002803D102980540002D25D02000B5
:104E700000F00EFB206880680640002E19D02068E4
:104E800080684021884321688860E06E00280CD04B
:104E90002348E16E8863E06E00F01EFD002811D00B
:104EA000E06EE16E896B88470CE0200001F0E2FBC8
:104EB00008E0200001F0DEFB04E0200001F0DAFB56
:104EC0000020E06729E0802040030099014000298C
:104ED00008D00199490205D521680862200001F037
:104EE000E7FB1AE0802000990140002909D03840F2
:104EF000002806D0606E002802D02000616E88472E
:104F00000BE0402000990140002906D038400028DD
:104F100003D0200000F0EEFAFFE705B0F0BD00007E
:104F2000DD540008FEB50500102001006A465170EE
:104F30000026370031006A4611700196AA492A6896
:104F40008A42FFD0AA682B6913436C691C43EA6943
:104F500022432B681C68A54B234013432C68236015
:104F60002B685C68A24B2340EC681C432B685C6098
:104F7000AB6902932B688B4203D0029A2B6A1343CE
:104F800002932A6892689B4B1340029A1A432B683B
:104F90009A602A68B34B9A4215D1B34A12689207B5
:104FA000920F002A05D0022A05D006D3032A06D084
:104FB00007E0012444E0022442E0042440E0082405
:104FC0003EE004003CE02A68A84B9A4216D1A64A6B
:104FD00012680C231340002B06D0042B08D0082B9A
:104FE00004D00C2B06D007E0340029E0022427E08F
:104FF000042425E0082423E0040021E02A688A42F2
:105000001DD1994A1268C0231B011340002B0CD0FC
:105010008022D20093420CD080221201934206D00B
:10502000C0221201934206D007E0340008E00224B7
:1050300006E0042404E0082402E0040000E0040088
:105040002A688A425BD12100C9B2002906D0022910
:1050500008D0042911D0082913D016E001F0EFFE82
:10506000019015E09B4909680840002802D09A4841
:10507000019001E0994801900AE001F091FE019051
:1050800006E080200002019002E0012069460870DD
:105090000198002800D118E1019869680322514362
:1050A000884206D3686880214901484301998842B3
:1050B00003D201206946087007E10198002180228F
:1050C0005200002301F0F0FE02000B006868400867
:1050D0000021801859416A68002301F0FEFE070094
:1050E000C0208000874206D380204003874202D23E
:1050F0002868C760E9E0012069460870E5E0802182
:105100000902EA698A427BD12100C9B2002908D08C
:10511000012913D002291ED0042935D0082940D0F6
:105120004AE001F08CFE02214843696849084018B2
:105130006968FDF716F980B2070040E001F08EFEC5
:10514000022148436968490840186968FDF709F970
:1051500080B2070033E05F4909680840002809D0A1
:1051600068684008AE4940186968FDF7FAF880B2EF
:10517000070008E068684008AA4940186968FDF718
:10518000F0F880B207001AE001F00AFE022148435D
:105190006968490840186968FDF7E3F880B20700BC
:1051A0000DE0686840088021490240186968FDF7F1
:1051B000D8F880B2070002E0012069460870102F7D
:1051C0001AD380204002874216D23900AF480840E7
:1051D00079084907490F014368464180684640887D
:1051E0002968C86071E000BF00480040F369FFEF24
:1051F000FFCFFFFFFFF4FFFF01206946087064E066
:105200002200D2B2002A08D0012A11D0022A1AD0D4
:10521000042A37D0082A40D048E001F010FE69681F
:10522000490840186968FDF79CF880B2070040E023
:1052300001F014FE6968490840186968FDF791F8A3
:1052400080B2070035E023490968084000280FD0E4
:1052500068684008204940186968FDF782F880B204
:1052600007000EE0003801404C10024000440040AE
:1052700068684008194940186968FDF772F880B2FB
:10528000070016E001F08CFD69684908401869685C
:10529000FDF767F880B207000BE068684008401827
:1052A0006968FDF75EF880B2070002E001206946F8
:1052B0000870102F06D380204002874202D228684F
:1052C000C76002E00120694608702E666E66684677
:1052D0000078FEBD0010024000093D000024F400EB
:1052E00000B52421415CC90707D501684968714AA6
:1052F0000A40816A1143026851602421415C890798
:1053000007D5016849686C4A0A40C16A11430268BE
:1053100051602421415C490707D501684968674A03
:105320000A40016B1143026851602421415C090766
:1053300007D501684968624A0A40416B1143026817
:1053400051602421415CC90607D5016889685D4A1E
:105350000A40816B1143026891602421415C8906F7
:1053600007D501688968584A0A40C16B1143026831
:1053700091602421415C490614D501684968534A6B
:105380000A40016C114302685160016C8022520393
:10539000914207D1016849684D4A0A40416C114366
:1053A000026851602421415C090607D501684968FB
:1053B000484A0A40816C11430268516000BD7CB5C7
:1053C00005000024EC67FEF795F8060028680068E1
:1053D00000070CD54048009033000022802189034B
:1053E000280000F021F8002801D0032016E02868EA
:1053F000006840070CD53848009033000022802117
:10540000C903280000F010F8002801D0032005E0AF
:1054100020206867A86770202C54002076BD00000B
:1054200000127A000048E801F4B504000D001F00E6
:10543000069E2068C0692840A84201D1012000E0F2
:1054400000206946097888421ED10020C043864268
:10545000EFD0FEF74FF8C01B864201D3002EE8D1F3
:105460002068006846490140206801602068806823
:10547000012188432168886020206067A0670020A0
:1054800070216054032000E00020F2BDF0FF000016
:10549000016809683B4A0A4001680A600168896836
:1054A00001229143026891602021816700210166F9
:1054B00070470000FFFFFDFFFFFFFEFFFFFFFBFF48
:1054C000FF7FFFFFFFEFFFFFFFDFFFFFFFFFEFFFAC
:1054D000FFFF9FFFFFFFF7FFFFFFFF0138B504004D
:1054E000A56A00205A21685252216852280001F012
:1054F000C1F831BD10B50400206800684021884320
:10550000216808602020606700206066200001F0AC
:1055100019FD10BD70B505005C202E5AA86F222819
:1055200027D12868406A0400200031000140686DDE
:105530000170686D401C68655A20285A401E5A2127
:1055400068525A20285A002819D1286800680D4945
:105550000140286801602868806801218843296823
:1055600088602020A86700202866280001F08CF8B9
:1055700005E028688069082101432868816170BDC1
:105580005FFEFFFFDFFEFFFFF8B505005C202E5A2F
:10559000A86F222827D12868406A0400686D070098
:1055A000300020403880686D801C68655A20285A79
:1055B000401E5A2168525A20285A002819D12868BA
:1055C00000680C4901402868016028688068012152
:1055D0008843296888602020A86700202866280062
:1055E00001F052F805E02868806908210143286825
:1055F0008161F1BDDFFEFFFF9248016801220A438D
:10560000026091480168802252050A430260704797
:1056100000B501688D4A914205D18A490A68802304
:105620009B0013430B6000BD00B50168874A91429F
:105630000BD184490A68864B13400B600168896A64
:10564000F822D2050A4001688A6200BD80B501686F
:10565000804A914209D1802149017F4A13680B4356
:105660001360126811400091009901BD00B50168F6
:10567000784A914204D178490A68784B13400B600C
:1056800000BD10B504002068754988420DD17548E9
:1056900001688022D2020A43026000220021022017
:1056A00001F0BFFC022001F0C6FC10BD10B586B0B1
:1056B00004001422002101A801F0E0FC20686A49DE
:1056C000884222D15F480168802252010A43026069
:1056D000022066490A6802430A6009680140009195
:1056E0000099382101910290002003900321049138
:1056F000059001A95E48FDF703FD00220021192055
:1057000001F08FFC192001F096FC06B010BD10B519
:1057100004002068544988420BD14A4801684F4A26
:105720000A40026038215248FDF7E8FD192001F0D7
:1057300089FC10BD10B586B0040014220021684613
:1057400001F09CFC20684B49884226D13D48016805
:105750008022D2010A430260012044490A680243C0
:105760000A600968014005910599C021C9000091AE
:1057700002210191029003200390042004906946C5
:10578000A020C005FDF7BCFC002200211B2001F079
:1057900048FC1B2001F04FFC29E020683649884274
:1057A00025D129480168802292020A430260012023
:1057B0002E490A6802430A60096808400590059866
:1057C0000C20009002200190002002900320039002
:1057D000042004906946A020C005FDF791FC00223A
:1057E00000211C2001F01DFC1C2001F024FC06B04F
:1057F00010BD10B5040020681E4988420ED1114822
:1058000001681E4A0A400260C021C900A020C005EC
:10581000FDF774FD1B2001F015FC10E0206816490F
:1058200088420CD108480168154A0A4002600C21E0
:10583000A020C005FDF762FD1C2001F003FC10BD97
:1058400000000000341002403810024000240140E3
:10585000FFFDFFFF0030024030100240FFEFFFFF6E
:105860000028004050100240003001402C1002403F
:10587000000400500038014000440040FFBFFFFF1B
:10588000FFFFFDFF30B50100002002002523CB5CA7
:10589000022B05D00423CB632423C85401201AE033
:1058A0000B681B680E24A3430C6823600B681B68FD
:1058B0000124A3430C682360012344240C5D1C25B0
:1058C00025401C00AC400D6C6C6025240B55242336
:1058D000C8541000C0B230BD38B504000020050027
:1058E0002521615C022904D00420E0630120050029
:1058F0001EE0216809680E22914322681160216828
:105900000968012291432268116001214422A25CAE
:105910001C2313400A009A40236C5A602522A1548C
:1059200024216054A06B002802D02000A16B88477E
:105930002800C0B232BDC06B70477047F7B5040095
:105940002020205C012801D102207FE001252020B9
:105950002554022021216054CA2021684862532026
:10596000216848628026F600206880683040002860
:1059700018D0FDF7BFFD00902068C068400711D522
:10598000FDF7B8FD0099401A5F498842F4D3FF2023
:1059900021684862032021216054002020216054A6
:1059A000032053E0206880685849014020688160E6
:1059B0002068C068802108405F4901432068C160B9
:1059C000FDF798FD07002068C068400710D4FDF778
:1059D00091FDC01B4C498842F5D3FF2021684862E5
:1059E00003202121605400202021605403202DE059
:1059F00001982168486120688068072188432168F0
:105A00008860206880680299014320688160802056
:105A100040034A490A6802430A6049490A68104338
:105A20000860206880688021C90101432068816086
:105A300020688068064320688660FF2021684862ED
:105A4000212025540020202160540020FEBD0000AC
:105A500070B504002020205C012801D1022038E02C
:105A6000012520202554022021216054CA202168CC
:105A700048625320216848622068806823490140B9
:105A800020688160206880682E490140206881601C
:105A9000FDF730FD06002068C068400710D4FDF710
:105AA00029FD801B23498842F5D3FF2021684862E5
:105AB000032021216054002020216054032008E0AD
:105AC000FF202168486221202554002020216054B5
:105AD000002070BD10B504002068C06840050AD5DC
